:200000000101010101010101010101010101010101010101010101010101010101010101C0
:200020000101010101010101010101010101010101010101010101010101010101010101A0
:200040000606060606060606060606060606060606060606060606060606060603030303EC
:20006000030303030303030303030303030303030303030303030303030303030303030320
:20008000030303030303030303030303030303030303030303030303030303030303030300
:2000A0000303030303030303030303030303030303030303030303030303030303030303E0
:2000C0000303030303030303030303030303030303030303030303030303030303030303C0
:2000E0000303030303030303030303030303030303030303030303030303030303030303A0
:200100000B0B0B0B0B0B0B0B0B0B0B0B0B0B0B0B0B0B0B0B0B0B0B0B0B0B0B0B0B0B0B0B7F
:200120000B0B0B0B0B0B0B0B0B0B0B0B0B0B0B0B0B0B0B0B0B0B0B0B0B0B0B0B0B0B0B0B5F
:200140000606060606060606060606060606060606060606060606060606060603030303EB
:2001600003030303030303030303030303030303030303030303030303030303030303031F
:200180000303030303030303030303030303030303030303030303030303030303030303FF
:2001A0000303030303030303030303030303030303030303030303030303030303030303DF
:2001C0000303030303030303030303030303030303030303030303030303030303030303BF
:2001E00003030303030303030303030303030303030303030303030303030303030303039F
:00000001FF
